:020000040800F2
:1000000000000220592F0008A92F0008A92F00087E
:10001000A92F0008A92F0008A92F00080000000040
:10002000000000000000000000000000A92F0008F0
:10003000A92F000800000000A92F0008CD1000081B
:10004000A92F0008A92F0008A92F0008A92F000830
:10005000A92F0008A92F0008A92F0008A92F000820
:10006000A92F0008A92F0008A92F0008A92F000810
:10007000A92F0008A92F0008A92F0008A92F000800
:10008000A92F0008A92F0008A92F000800000000D0
:10009000000000000000000000000000A92F000880
:1000A000A92F0008A92F0008A92F0008A92F0008D0
:1000B000A92F0008A92F0008A92F0008A92F0008C0
:1000C000A92F0008A92F0008A92F0008A92F0008B0
:1000D000A92F0008A92F0008A92F00080000000080
:1000E000A92F0008A92F0008A92F00080000000070
:1000F000000000000000000000000000A92F000820
:1001000000000000A92F0008A92F0008A92F00084F
:1001100000000000000000000000000000000000DF
:10012000A92F0008A92F0008A92F0008A92F00084F
:10013000A92F0008000000000000000000000000DF
:10014000000000000000000000000000A92F0008CF
:10015000A92F0008A92F0008A92F0008A92F00081F
:10016000A92F0008A92F00080000000000000000CF
:10017000000000000000000000000000000000007F
:1001800000000000A92F000800000000000000008F
:08019000A92F0008A92F0008A7
:10019800044B05481B1A062B02D9044B03B1184718
:1001A800704700BF730000207000002000000000AE
:1001B80005490648091A891001EBD171491002D086
:1001C800034B03B1184770477000002070000020EF
:1001D8000000000010B5064C237843B9FFF7D8FF9C
:1001E800044B13B10448AFF300800123237010BD02
:1001F80070000020000000004038000808B5084BD7
:100208001BB108480849AFF300800848036813B9D0
:10021800BDE80840CCE7064B002BF9D09847F7E734
:100228000000000040380008740000207000002022
:100238000000000053B94AB9002908BF00281CBFB4
:100248004FF0FF314FF0FF3000F03CB882B0EC4681
:100258002DE9005000F01EF8DDF804E002B00CBCF7
:10026800704700BF2DE9F041069C154606460F462B
:10027800984600F029F805FB01F300FB0838A5FBB8
:100288000023B21A434467EB0303C4E90023BDE823
:10029800F08100BF2DE9F041069C904606460F46C6
:1002A8001D4600F05FF900FB05F5A0FB082308FBDD
:1002B8000155B21A2B4467EB0303C4E90023BDE8D8
:1002C800F08100BF704700BF00292DE9F043C0F25C
:1002D800A6800026002BC0F29C80884694469E4645
:1002E800154604460F46002B3DD18A4259D9B2FA29
:1002F80082F33BB1C3F120029F4020FA02F29D40F5
:1003080017439C40290C220CB7FBF1FEA8B201FB55
:100318001E7742EA074700FB0EF3BB420AD97F1952
:100328000EF1FF3280F00581BB4240F20281AEF14E
:10033800020E2F44FF1AA4B2B7FBF1F301FB1377A7
:1003480044EA074700FB03F0B84208D97F1903F1D4
:10035800FF3280F0F080B84240F2ED80023B43EA81
:100368000E43002203E08B420FD900221346341CAF
:1003780018BF012460424FF0000565EB4501584065
:10038800514000196941BDE8F083B3FA83F2002AAD
:1003980040F086808B4202D3844500F2DB80012343
:1003A800E5E712B90123B3FBF2F5B5FA85F00028A9
:1003B8003BD1781B4FEA154E1FFA85FC0122B0FB92
:1003C800FEF8210C0EFB180741EA07470CFB08F35F
:1003D800BB4207D97F1908F1FF3102D2BB4200F2B4
:1003E800BD808846FF1AA4B2B7FBFEF30EFB137755
:1003F80044EA07470CFB03FCBC4507D97F1903F106
:10040800FF3102D2BC4500F2A7800B4643EA0843FD
:10041800ADE752426FEA060663EB43035DE74042ED
:1004280061EB41014FF0FF3654E7C0F1200224FA96
:1004380002F107FA00F385404FEA154ED7401943F9
:10044800B7FBFEF20B0C0EFB12771FFA85FC43EA92
:1004580007430CFB02F79F4204FA00F407D95B1923
:1004680002F1FF3074D29F4272D9023A2B44DF1B4B
:1004780089B2B7FBFEF80EFB187341EA03430CFB85
:1004880008F79F4208D95B1908F1FF315CD29F42F7
:100498005AD9A8F102082B44D81B48EA02428EE731
:1004A800C2F120032CFA03F10EFA02FE20FA03F738
:1004B80041EA0E0E08FA02F028FA03F14FEA1E4547
:1004C8003843B1FBF5F8030C05FB18111FFA8EF73A
:1004D80043EA014107FB08F38B420CFA02FC09D9F5
:1004E80011EB0E0108F1FF3930D28B422ED9A8F159
:1004F80002087144C91A80B2B1FBF5F305FB131168
:1005080040EA014107FB03F78F4208D911EB0E01BE
:1005180003F1FF3016D28F4214D9023B714443EAEB
:100528000843C91BA3FB0C89494509D305D0002200
:100538001DE79646FEE6134611E794404445F6D279
:10054800013BF4E70346EAE78846A5E7C846D1E752
:1005580002468CE713460AE7023B57E7A8F1020870
:100568002F443FE72DE9F041002B44D18A4215463C
:1005780004464FD9B2FA82F70E464FB1C7F12003AD
:10058800B94020FA03F602FA07F50E4300FA07F419
:100598004FEA154E230CB6FBFEF0AFB20EFB10610E
:1005A80043EA014307FB00F1994209D95B1900F1BD
:1005B800FF3280F0EC80994240F2E98002382B4407
:1005C8005A1AA4B2B2FBFEF30EFB132244EA02420B
:1005D80007FB03F7974208D9521903F1FF3180F05E
:1005E800D880974240F2D580023B43EA004000267B
:1005F8003146BDE8F0818B4247D8B3FA83F6002E26
:1006080048D18B4202D3824200F2CD80012031468C
:10061800BDE8F08112B90125B5FBF2F5B5FA85F808
:10062800B8F1000F77D14A1B4FEA154EAFB2012639
:10063800B2FBFEF0230C0EFB102143EA014107FB3D
:1006480000F38B4207D9491900F1FF3202D28B42DD
:1006580000F2BA801046C91AA4B2B1FBFEF30EFB31
:10066800131144EA014407FB03F7A74208D96419A8
:1006780003F1FF3280F08F80A74240F28C80023B6A
:1006880043EA00403146BDE8F08100263046314655
:10069800BDE8F081C6F1200422FA04F5B3402B43EB
:1006A80020FA04FC01FA06F721FA04F54FEA134E82
:1006B8004CEA0707B5FBFEF8390C0EFB18551FFA74
:1006C80083FC41EA05450CFB08F1A94202FA06F24F
:1006D80004D9ED1808F1FF3467D3A0466D1ABFB2EC
:1006E800B5FBFEF40EFB145547EA05410CFB04FC70
:1006F8008C4504D9C91804F1FF355CD32C4644EA6B
:100708000844CCEB0101A4FB0223994248D344D00E
:10071800204600266CE7C8F1200401FA08F305FA20
:1007280008F520FA04F7E1404FEA154E1F43B1FBE4
:10073800FEF63A0C0EFB16111FFA85FC42EA01433D
:100748000CFB06F29A4200FA08F407D95B1906F185
:10075800FF3137D29A4235D9023E2B449B1ABFB299
:10076800B3FBFEF00EFB103347EA03430CFB00F12A
:10077800994207D95B1900F1FF3221D299421FD95A
:1007880002382B445A1A40EA0646674650E7104694
:1007980016E70B4629E7134672E7B0409042B7D2F6
:1007A800601E002624E7304622E7A94295D9A8F121
:1007B80002081D4492E78C45A0D9023C19449EE7E3
:1007C8001046DFE70E46C9E70238294443E700BF71
:1007D80008B5084C2046084921224FF0FF3301F0A4
:1007E80051FE2046054903224FF0FF3301F04AFE2F
:1007F800EFE700BF44010020583800087C380008A3
:1008080000B595B000230193294A116C41F080513D
:100818001164126C02F080520192019A0293254AE7
:10082800116841F440411160126802F4404202929A
:10083800029A0221089101220B9210220C920E9129
:100848000F9310924FF4A8731193042312931393E8
:1008580008A801F087FE20B117484FF48271FFF70E
:10086800B7FF0F23039302210491002305934FF44C
:1008780080520692079303A802F0BAF820B10E48F6
:100888004FF48971FFF7A4FF02F062F90B4BA3FB49
:100898000030800902F0A4FA042002F0B7FA4FF001
:1008A800FF3000210A4602F069FA15B05DF804FB32
:1008B800003802400070004080380008D34D6210B4
:1008C800F0B587B002F0DEFAFFF79AFF00F0BEF845
:1008D80000F0E8F900F00AF900F088F9514D2846CF
:1008E800002101F06DFB2846042101F069FB2B680B
:1008F80041F270725A639A634FF47A6002F0EEFA2A
:100908002B6840F6B8345C639C634FF47A6002F05D
:10091800E5FA2B685C639C6307E0424B1B685C63E9
:100928009C63072002F0DAFA013440F6AB539C428C
:10093800F3DDC82002F0D2FA3B483C491E224FF0B2
:10094800FF3301F09FFD0026354600230093384809
:1009580038491A4600F0B0FA30B1334836490B220C
:100968004FF0FF3301F08EFD314F324C38462146AF
:1009780000F06CFB3846214600F030FB3846214633
:1009880000F0F4FAE3899AB21544ADB2961BB6B2F8
:100998001BB207EE103AB8EEC77ADFED286A67EEA9
:1009A800266A2BB207EE103AB8EEC77A9FED246A92
:1009B80027EE067A36EE877A33B207EE903AF8EEEB
:1009C800E77A67EE867A77EE277AFDEEE77ACDED5D
:1009D800037ABDF90C4004A81A49224602F008FB24
:1009E800114F384604A907224FF0FF3301F04AFDA2
:1009F8003846154903224FF0FF3301F043FD002C20
:100A080004DD04F548644FF4486206E0002CB8BFE2
:100A1800644204F548624FF44864024B1B685C6307
:100A28009A6392E708010020440100208C380008EE
:100A3800B400002098000020AC3800080AD7A33C76
:100A480000000000B83800087C38000830B58BB0CA
:100A580000240194214B1A6B42F004021A631A6BAA
:100A680002F004020192019A02941A6B42F0800289
:100A78001A631A6B02F080020292029A03941A6BAC
:100A880042F001021A631A6B02F001020392039A00
:100A980004941A6B42F002021A631B6B03F0020300
:100AA8000493049B0E4D28462021224602F04EF95D
:100AB8004FF4005305930B4B069307940A4805A976
:100AC80002F06CF8202305930123069307940894F9
:100AD800284605A902F062F80BB030BD0038024084
:100AE80000000240000021100008024008B50B4831
:100AF8000B4B03600B4B436000238360C3604FF4D0
:100B08008042026143618361C361036200F02CFD8E
:100B180018B105484221FFF75BFE08BDB40000206C
:100B280000540040A0860100BC3800080268124B3F
:100B38009A421FD100B587B0C023019312230293B4
:100B48000123039303230493042305930B480DEB1C
:100B5800030102F023F800230093094B1A6C42F4B6
:100B680000121A641B6C03F400130093009B07B077
:100B78005DF804FB704700BF0054004000040240C9
:100B8800003802400268094B9A420DD182B0002316
:100B98000193074B5A6C42F001025A645B6C03F0F4
:100BA80001030193019B02B0704700BF00000140A0
:100BB8000038024002680B4B9A4212D100B587B048
:100BC8004FF4407301930223029300230393049389
:100BD80001230593044801A901F0E0FF07B05DF87F
:100BE80004FB7047000001400000024000B591B0CE
:100BF80029482A4B036020234360002383604CF676
:100C08000872C2600361436101F014F918B1244805
:100C18004021FFF7DDFD00230E930F931E480EA918
:100C280001F0E6F918B11E484721FFF7D1FD60230E
:100C380007930022089209920A920B920C920D9245
:100C4800154807A901F040F918B115485321FFF7D5
:100C5800BFFD114807A9042201F036F918B1104860
:100C68005821FFF7B5FD00230093019302930393E6
:100C780004934FF40052059206930748694601F021
:100C8800E1F918B106486421FFF7A2FD0248FFF711
:100C980091FF11B05DF804FB08010020000001403D
:100CA800C838000808B50B480B4B03604FF4E13314
:100CB800436000238360C36003610C224261836147
:100CC800C36101F0ADFB18B104484221FFF780FD74
:100CD80008BD00BF4401002000440040D43800088B
:100CE8000268114B9A421ED100B587B000230093C9
:100CF8000E4B1A6C42F400321A641B6C03F4003376
:100D08000093009B0C230193022302930123039376
:100D18000323049307230593054801A901F03EFF27
:100D280007B05DF804FB70470044004000380240FB
:100D38000000024030B585B005460C7819238DF8BF
:100D48000C308DF80D204FF47A7300932846214615
:100D580003AA022300F096FC0028F4D105B030BDA8
:100D68002DE9F04184B00546884617460E781C23C5
:100D78008DF80E30B4B24FF47A73009328462146AA
:100D88000DF10E02012300F07DFC0028F2D14FF492
:100D98007A730093284621460DF10F02012300F0D3
:100DA8002FFD0028F3D19DF80F3023F0180343EAF4
:100DB800C7038DF80F304FF47A7300932846214605
:100DC8000DF10F02012300F05DFC0028F3D1032F81
:100DD80016D8DFE807F002070C114FF06253C8F885
:100DE80008300DE04FF06453C8F8083008E04FF0C1
:100DF8006653C8F8083003E04FF06853C8F8083065
:100E0800002004B0BDE8F0812DE9F04184B005462A
:100E1800884617460E781B238DF80E30B4B24FF46F
:100E28007A730093284621460DF10E02012300F043
:100E380029FC0028F2D14FF47A7300932846214602
:100E48000DF10F02012300F0DBFC0028F3D19DF81F
:100E58000F3023F0180343EAC7038DF80F304FF41F
:100E68007A730093284621460DF10F02012300F002
:100E780009FC0028F3D1032F12D8DFE807F0020697
:100E88000A0E094BC8F804300AE0084BC8F80430C9
:100E980006E0074BC8F8043002E0064BC8F80430F7
:100EA800002004B0BDE8F0812D23FA3B2D237A3CC5
:100EB80090C1F93C90C1793DF0B585B006460D4624
:100EC8001F4675238DF80F3042F0D0020A7094B295
:100ED80021460222052300F009FED8BB4FF47A739D
:100EE8000093304621460DF10F02012300F0CAFBA2
:100EF80090BB4FF47A730093304621460DF10E02F1
:100F0800012300F07DFC48BB9DF80E30682B27D1EB
:100F18006B238DF80C3000238DF80D304FF47A7365
:100F280000933046214603AA022300F0ABFBC8B960
:100F3800304629460722FFF7FDFE304629463A4645
:100F4800FFF70EFF304629469DF82820FFF75CFF83
:100F5800002008E0012006E0012004E0012002E072
:100F6800032000E0012005B0F0BD00BFF0B587B058
:100F780005460F463B238DF80F300E78B4B24FF478
:100F88007A730093284621460DF10F02012300F0E1
:100F980079FB0028F2D14FF47A7300932846214652
:100FA80004AA062300F02CFC0028F4D19DF8102098
:100FB8009DF8113043EA0223BB819DF812209DF869
:100FC800133043EA0223FB819DF814209DF8153065
:100FD80043EA02233B8207B0F0BD00BFF0B587B0FB
:100FE80005460F4643238DF80F300E78B4B24FF400
:100FF8007A730093284621460DF10F02012300F071
:1010080041FB0028F2D14FF47A7300932846214619
:1010180004AA062300F0F4FB0028F4D19DF8102060
:101028009DF8113043EA02237B829DF812209DF837
:10103800133043EA0223BB829DF814209DF8153033
:1010480043EA0223FB8207B0F0BD00BFF0B585B0CC
:1010580005460F4641238DF80B300E78B4B24FF495
:101068007A730093284621460DF10B02012300F004
:1010780009FB0028F2D14FF47A73009328462146E1
:1010880003AA022300F0BCFB0028F4D19DF80C2031
:101098009DF80D3043EA02231BB207EE903AF8EEB2
:1010A800E77A9FED067AC7EE877A9FED057A77EEA5
:1010B800877AC7ED067A05B0F0BD00BF0000AA43E5
:1010C800B81E124208B501F0F7FE01F0B1FE08BDE6
:1010D80010B582B000240094214B5A6C42F480422F
:1010E8005A645A6C02F480420092009A01941A6C75
:1010F80042F080521A641B6C03F080530193019BE9
:10110800072001F029FE6FF00B002146224601F06E
:1011180035FE6FF00A002146224601F02FFE6FF0DF
:1011280009002146224601F029FE6FF004002146FD
:10113800224601F023FE6FF003002146224601F00B
:101148001DFE6FF001002146224601F017FE4FF008
:10115800FF302146224601F011FE02B010BD00BF4B
:101168000038024003685A6912F4806F0DD06FF49A
:1011780080625A610423036400230363202280F8F9
:101188003D2080F83C30012070470020704700BFA8
:10119800F8B506460C4617461D4614E0B5F1FF3F64
:1011A80011D02DB101F094FE069BC01AA8420AD9AD
:1011B80000233363202286F83D2086F83E3086F8E7
:1011C8003C300320F8BDC4F30743012B08D1336832
:1011D8005B6924EA03039BB2B3FA83F35B0907E074
:1011E80033689B6924EA03039BB2B3FA83F35B0970
:1011F800BB42D3D00020F8BDF8B504460D461646CC
:101208001F4629E023685A6912F4806F12D01A68C1
:1012180042F400721A6023686FF480625A610423F2
:10122800236400232363202284F83D2084F83C3083
:101238000120F8BDB6F1FF3F0ED026B101F048FEFF
:10124800C01BB04208D900232363202284F83D2024
:1012580084F83C300320F8BDC5F30743012B08D1BF
:1012680023685B6925EA03039BB2003318BF012397
:1012780007E023689B6925EA03039BB2003318BF84
:101288000123002BBED10020F8BD00BFF0B583B00C
:1012980004460F4616461D46C36A042B04D0012B8C
:1012A80002D013F5803F05D12268136843F4807398
:1012B800136007E0036B122B04D10268136843F430
:1012C80080731360009520464FF0011100223346C9
:1012D800FFF75EFF58BB2369B3F5804F04D123683D
:1012E80007F0FE071F6115E0226807F44073DB1161
:1012F80043F0F00313612046114932462B46FFF7AD
:101308007BFF20B1236C042B13D1012314E0236845
:10131800FFB21F6120460B4932462B46FFF76CFF90
:10132800034648B1236C042B05D1012304E00323B1
:1013380002E0032300E00323184603B0F0BD00BF1A
:1013480008000100020001002DE9F04184B00446C4
:101358000F4616461D46C26A01680B6843F480634F
:101368000B60042A04D0012A02D012F5803F05D16F
:101378002268136843F48073136007E0036B112B32
:1013880004D10268136843F4807313600095204603
:101398004FF0011100223346FFF7FAFE002851D121
:1013A8002369B3F5804F05D1236847F00107FFB2E1
:1013B8001F613AE0236807F440784FEAD81848F0EC
:1013C800F0021A612046264932462B46FFF714FFE1
:1013D80020B1236C042B37D101233CE02368FFB2F2
:1013E8001F6120461F4932462B46FFF705FF20B1F3
:1013F800236C042B2AD101232DE0002203922368B9
:1014080059690391996903910399196841F48071A5
:101418001960009520464FF001113346FFF7B8FEDA
:10142800B0B9226848F0F103136120460D493246ED
:101438002B46FFF7E1FE034668B1236C042B09D164
:10144800012308E0032306E0032304E0032302E06A
:10145800032300E00323184604B0BDE8F08100BF71
:10146800080001000200010070B504460D4616464A
:1014780019E02046FFF776FEE0B9B5F1FF3F12D03C
:1014880025B101F025FD801BA8420CD9236C43F03F
:101498002003236400232363202284F83D2084F85A
:1014A8003C30032070BD23685B6913F0800FE0D0E7
:1014B800002070BD012070BD70B504460D4616466B
:1014C80019E02046FFF74EFEE0B9B5F1FF3F12D014
:1014D80025B101F0FDFC801BA8420CD9236C43F018
:1014E8002003236400232363202284F83D2084F80A
:1014F8003C30032070BD23685B6913F0040FE0D013
:10150800002070BD012070BD70B505460C4616461A
:1015180022E05A6912F0100F0CD06FF010025A61D5
:1015280000232B642B63202285F83D2085F83C306E
:10153800012070BD24B101F0CBFC801BA0420BD967
:101548002B6C43F020032B64202385F83D300023C7
:1015580085F83C30032070BD2B685A6912F0400FA3
:10156800D7D0002070BD00BF002800F0838038B5B8
:10157800044690F83D3013F0FF0F04D1002380F8A3
:101588003C30FFF7D3FA242384F83D3022681368EF
:1015980023F00103136001F0E1FA374BA3FB0023AA
:1015A8009B0C2268536021686568344A954201D8CB
:1015B800013308E04FF4967202FB03F3304AA2FBB2
:1015C80003239B0901330B62216863682B4A93420A
:1015D80008D85B00B0FBF3F0C0F30B03032B2BD848
:1015E800042029E0A5684DB903EB4302B0FBF2F2F1
:1015F800C2F30B02B2FA82F252090AE003EB830249
:1016080002EB8202B0FBF2F2C2F30B02B2FA82F2F0
:10161800520982B935B903EB4303B0FBF3F040F448
:10162800004009E003EB830303EB8303B0FBF3F013
:1016380040F4404000E00120C8612268E169236A63
:101648000B43136022682169E3680B4393602268A7
:101658006169A3690B43D3602268136843F00103EF
:10166800136000202064202384F83D30206384F830
:101678003E0038BD0120704783DE1B43A086010071
:10168800D34D62102DE9F04184B004460D469046D2
:101698001F4601F01DFC94F83D30DBB2202B40F0D2
:1016A800A080064600902046544901221923FFF7DE
:1016B8006FFD002840F0978094F83C30012B00F033
:1016C8009480012384F83C3023681A6812F0010FD3
:1016D80003D11A6842F001021A602268136823F4E1
:1016E80000631360212384F83D30102384F83E30D2
:1016F80000232364C4F824806785A3F58033E3625C
:10170800638D2385204629460A9A3346FFF7BEFD96
:10171800054660B1236C042B04D1002384F83C30C7
:10172800012567E0002384F83C30032562E00023AC
:10173800039323685A6903929B690393039B3FE0D1
:1017480020460A993246FFF78FFE48B1236C042BD6
:101758004DD12268136843F400731360012549E0F2
:101768002268636A591C61621B781361638D013BAF
:101778009BB26385238D013B9BB223852268516907
:1017880011F0040F0CD05BB1636A591C61621B78BD
:101798001361638D013B9BB26385238D013B2385D8
:1017A80020460A993246FFF787FE48B1236C042B7E
:1017B8001FD12268136843F400731360012519E0F0
:1017C800238D002BBCD12268136843F40073136087
:1017D800202384F83D30002384F83E3084F83C30E0
:1017E80008E0022506E0022504E0022502E00325C0
:1017F80000E00325284604B0BDE8F081020010008F
:101808002DE9F04186B004460D4690461F4601F08A
:101818005FFB94F83D30DBB2202B40F05481064644
:1018280000902046904901221923FFF7B1FC0028B7
:1018380040F04B8194F83C30012B00F048810123A3
:1018480084F83C3023681A6812F0010F03D11A6833
:1018580042F001021A602268136823F400631360DF
:10186800222384F83D30102384F83E30002323647B
:10187800C4F824806785A3F58033E362638D2385EC
:10188800204629460C9A3346FFF75EFD054660B1AF
:10189800236C042B04D1002384F83C30012521E17A
:1018A800002384F83C3003251CE1238D5BB90293A7
:1018B80023685A6902929A690292029A1A6842F453
:1018C80000721A60F2E0012B11D12268136823F428
:1018D800806313600023039323685A6903929A690B
:1018E8000392039A1A6842F400721A60DEE0022B2F
:1018F80012D12268136823F4806313602268136886
:1019080043F4006313600023049323685A69049224
:101918009B690493049BC9E02268136843F48063BD
:1019280013600023059323685A6905929B69059300
:10193800059BBBE0032B00F28C80012B19D12046BC
:101948000C993246FFF7E0FD28B1236C202B40F0BC
:10195800C0800325C6E0636A5A1C62622268126965
:101968001A70238D013B2385638D013B9BB26385F0
:101978009CE0022B29D1009620463C4900220C9B72
:10198800FFF706FC002840F0A6802268136843F49D
:1019980000731360636A5A1C6262226812691A70C3
:1019A800238D013B2385638D013B9BB26385636A6D
:1019B8005A1C6262226812691A70238D013B2385C2
:1019C800638D013B9BB2638570E0009620462749F2
:1019D80000220C9BFFF7DCFB00287ED122681368ED
:1019E80023F480631360636A5A1C62622268126976
:1019F8001A70238D013B2385638D013B9BB2638560
:101A080000962046194900220C9BFFF7C1FB0028CD
:101A180065D12268136843F400731360636A5A1C23
:101A28006262226812691A70238D013B2385638DD7
:101A3800013B9BB26385636A5A1C62622268126921
:101A48001A70238D013B2385638D013B9BB263850F
:101A58002CE020460C993246FFF756FD40B1236C26
:101A6800202B3ED103253DE00200100004000100B8
:101A7800636A5A1C6262226812691A70238D013BDC
:101A88002385638D013B9BB2638523685A6912F0F5
:101A9800040F0BD0626A511C61621B691370238D9D
:101AA800013B2385638D013B9BB26385238D002B0E
:101AB8007FF440AF202384F83D30002384F83E3083
:101AC80084F83C300EE002250CE002250AE00225ED
:101AD80008E0012506E0032504E0032502E00325CC
:101AE80000E00125284606B0BDE8F0812DE9F04365
:101AF80085B004460F4690461D4601F0E9F994F872
:101B08003D30DBB2202B40F0A580064600902046F1
:101B1800584901221923FFF73BFB002840F09C801D
:101B280094F83C30012B00F09980012384F83C3074
:101B380023681A6812F0010F03D11A6842F00102F3
:101B48001A602268136823F400631360242384F85E
:101B58003D3000232364A3F58033E3624FF001098D
:101B680000E099462268136843F480731360009676
:101B780020464FF0011100222B46FFF709FB0028F1
:101B88006ED1236807F0FE021A6101F0A1F906463A
:101B980022685369C3F340035269C2F3802294F860
:101BA8003D10C9B212E025B101F092F9801BA8429C
:101BB80002D9A02384F83D3022685369C3F3400357
:101BC8005269C2F3802294F83D10C9B213B90AB918
:101BD800A029E8D1202384F83D3023685A6912F0FF
:101BE800020F1BD01A6842F400721A600023039394
:101BF80023685A6903929B690393039B00962046C6
:101C08001C4901221923FFF7C3FA034650BB2022BF
:101C180084F83D20002284F83C2026E01A6842F42B
:101C280000721A6023686FF480625A610096204639
:101C3800104901221923FFF7ABFAA8B909F10103EA
:101C4800C1458ED3202384F83D30002384F83C30EE
:101C580001230AE0022308E0022306E0022304E04D
:101C6800032302E0032300E00323184605B0BDE880
:101C7800F08300BF0200100030B4036A23F00103B0
:101C88000362036A4468826922F073020D682A437A
:101C980023F002038D682B430A4DA8420BD123F091
:101CA8000803CD682B4323F0040324F440744D69E2
:101CB8002C438D692C43446082614A684263036205
:101CC80030BC70470000014030B4036A23F48073CD
:101CD8000362036A4468C26922F073020D682A43EA
:101CE80023F400738D6843EA05230C4DA8420ED1F6
:101CF80023F40063CD6843EA052323F4806324F4C6
:101D080040544D6944EA05148D6944EA0514446059
:101D1800C2614A68C263036230BC70470000014078
:101D280030B4036A23F480530362036A4468C269C7
:101D380022F4E6420D6842EA052223F400538D6836
:101D480043EA0533074DA84204D124F480444D6981
:101D580044EA85144460C2614A680264036230BC84
:101D6800704700BF000001400368314A904210D01C
:101D7800B0F1804F0FD0A2F57C4290420DD002F511
:101D8800806290420BD002F58062904209D1012214
:101D980008E0012206E0012204E0012202E001221B
:101DA80000E000221AB123F070034A681343204A66
:101DB80090421CD0B0F1804F1BD0A2F57C429042DB
:101DC80019D002F58062904217D002F580629042E5
:101DD80015D002F59A32904213D002F580629042F3
:101DE80011D002F5806290420FD101220EE001224B
:101DF8000CE001220AE0012208E0012206E00122AB
:101E080004E0012202E0012200E000221AB123F4DA
:101E18004073CA68134303608B68C3620B688362AC
:101E2800034B984201D10B69036301234361704757
:101E380000000140C0B110B5044690F8393013F0E5
:101E4800FF0F04D1002380F83830FEF79BFE0223F1
:101E580084F83930214651F8040BFFF785FF012338
:101E680084F83930002010BD0120704730B4036A6F
:101E780023F010030362036A4468826922F4E6428D
:101E88000D6842EA052223F020038D6843EA051312
:101E98000C4DA8420ED123F08003CD6843EA051308
:101EA80023F0400324F440644D6944EA85048D69B5
:101EB80044EA8504446082614A688263036230BCF4
:101EC800704700BF0000014038B590F83830012B4A
:101ED80066D00D460446012380F83830022380F886
:101EE80039300C2A55D8DFE802F0075454541A54F4
:101EF80054542E54545441000068FFF7BDFE226824
:101F0800936943F0080393612268936923F00403FB
:101F18009361226891692B690B43936139E00068EA
:101F2800FFF7A4FF2268936943F400639361226872
:101F3800936923F48063936122689369296943EA6A
:101F48000123936125E00068FFF7BEFE2268D3698C
:101F580043F00803D3612268D36923F00403D361F3
:101F68002268D1692B690B43D36112E00068FFF73F
:101F7800D7FE2268D36943F40063D3612268D3692A
:101F880023F48063D3612268D369296943EA012372
:101F9800D361012384F83930002084F8380038BD33
:101FA800022038BD10B401238B40046A24EA0303DD
:101FB8000362036A8A401A4302625DF8044B704761
:101FC80010B5044600680122FFF7ECFF2368074AB2
:101FD800934203D15A6C42F400425A64226813684F
:101FE80043F001031360002010BD00BF0000014052
:101FF80090F83830012B21D030B4012280F83820F5
:10200800022380F839300468636823F07003636042
:10201800046865680B682B4363600468A36823F051
:102028008003A3600468A5684B682B43A36080F80D
:102038003920002380F83830184601E00220704724
:1020480030BC704790F83830012B22D0012380F83B
:102058003830CB6823F440728B68134323F48062D2
:102068004B68134323F400620B68134323F4805234
:102078000B69134323F400524B6913438A6923F411
:102088004043134302685364002380F838301846ED
:1020980070470220704700BF2DE9F84304460268E4
:1020A800136923F44053C1680B4313610068C36884
:1020B80023F4164323F00C03A168226911436269D3
:1020C8001143E2690A431343C3602268536923F446
:1020D8004073A1690B435361E369B3F5004F40F0C6
:1020E800B580266803F1804303F510439E4203D070
:1020F80003F580639E4254D100F040FD00EB800060
:1021080000EB800065686D00B0FBF5F5A84FA7FBF4
:1021180005356D092D0100F031FD00EB800000EB65
:10212800800063685B00B0FBF3F800F027FD00EB6C
:10213800800000EB800063685B00B0FBF3F3A7FB53
:1021480003235B094FF0640909FB1383DB00323377
:10215800A7FB03231B0903F4F8731D4400F00EFDCD
:1021680000EB800000EB800063685B00B0FBF3F8D5
:1021780000F004FD00EB800000EB800063685B006A
:10218800B0FBF3F3A7FB03235B0909FB1383DB0015
:102198003233A7FB0323C3F342131D44B560BDE8E4
:1021A800F88300F0DBFC00EB800000EB8000656842
:1021B8006D00B0FBF5F57E4FA7FB05356D092D01C8
:1021C80000F0CCFC00EB800000EB800063685B0053
:1021D800B0FBF3F800F0C2FC00EB800000EB8000DD
:1021E80063685B00B0FBF3F3A7FB03235B094FF0C5
:1021F800640909FB1383DB003233A7FB03231B09A4
:1022080003F4F8731D4400F0A9FC00EB800000EB18
:10221800800063685B00B0FBF3F800F09FFC00EB04
:10222800800000EB800063685B00B0FBF3F3A7FB62
:1022380003235B0909FB1383DB003233A7FB03236A
:10224800C3F342131D44B560BDE8F8832668594BB3
:102258009E4203D003F580639E4254D100F08EFC69
:1022680000EB800000EB80006568AD00B0FBF5F581
:102278004F4FA7FB05356D092D0100F07FFC00EBE2
:10228800800000EB800063689B00B0FBF3F800F06F
:1022980075FC00EB800000EB800063689B00B0FBDE
:1022A800F3F3A7FB03235B094FF0640909FB1383CE
:1022B8001B013233A7FB03235B0903F0F0031D4422
:1022C80000F05CFC00EB800000EB800063689B0082
:1022D800B0FBF3F800F052FC00EB800000EB80004C
:1022E80063689B00B0FBF3F3A7FB03235B0909FBBF
:1022F80013831B013233A7FB0323C3F343131D448A
:10230800B560BDE8F88300F029FC00EB800000EB25
:1023180080006568AD00B0FBF5F5254FA7FB0535D6
:102328006D092D0100F01AFC00EB800000EB800025
:1023380063689B00B0FBF3F800F010FC00EB800032
:1023480000EB800063689B00B0FBF3F3A7FB03235B
:102358005B094FF0640909FB13831B013233A7FBA8
:1023680003235B0903F0F0031D4400F0F7FB00EBC7
:10237800800000EB800063689B00B0FBF3F800F07E
:10238800EDFB00EB800000EB800063689B00B0FB76
:10239800F3F3A7FB03235B0909FB13831B01323308
:1023A800A7FB0323C3F343131D44B560BDE8F883BB
:1023B8001F85EB51001001402DE9F04106460C46FF
:1023C80017469846069D1EE0B5F1FF3F1BD02DB17C
:1023D80000F07EFDC8EB0000A84214D93268D3682B
:1023E80023F4D073D3603268536923F00103536137
:1023F800202386F8393086F83A30002386F83830BA
:102408000320BDE8F08133681B682340A34214BF52
:1024180000230123BB42D7D00020BDE8F08100BFD4
:1024280068B310B5044690F8393013F0FF0F04D1A3
:10243800002380F83830FEF753FC242384F8393021
:102448002268D36823F40053D3602046FFF724FEA4
:102458002268136923F4904313612268536923F0B7
:102468002A0353612268D36843F40053D3600020E1
:10247800E063202384F8393084F83A3010BD012015
:10248800704700BF2DE9F04182B004461E4690F81F
:102498003930DBB2202B54D10D469046002952D05A
:1024A800002A52D090F83830012B50D0012380F800
:1024B80038300023C363212380F8393000F008FD49
:1024C8000746A4F82480A4F8268026E0E38C013B84
:1024D8009BB2E384A368B3F5805F12D100962046CF
:1024E800802100223B46FFF767FF90BB22682B88BC
:1024F800C3F30803536023690BB902350DE00135B6
:102508000BE000962046802100223B46FFF754FF4F
:1025180008BB23682A785A600135E38C9BB2002BEC
:10252800D4D100962046402100223B46FFF744FFC5
:10253800034690B9202284F83920002284F83820F4
:102548000CE002230AE0012308E0012306E002234D
:1025580004E0032302E0032300E00323184602B04B
:10256800BDE8F081002800F0B58170B582B004465E
:10257800036813F0010F5AD0A04B9B6803F00C03BB
:10258800042B0AD09D4B9B6803F00C03082B0DD13C
:102598009A4B5B6813F4800F08D0984B1B6813F4B0
:1025A800003F44D06368002B41D195E16368B3F5DF
:1025B800803F05D1914A136843F48033136015E0D6
:1025C800B3F5A02F09D18D4B1A6842F480221A6006
:1025D8001A6842F480321A6008E0884B1A6822F4BC
:1025E80080321A601A6822F480221A6063687BB10C
:1025F80000F06EFC054605E000F06AFC401B64280C
:1026080000F26C817D4B1B6813F4003FF4D00EE0A0
:1026180000F05EFC054605E000F05AFC401B64280B
:1026280000F25E81754B1B6813F4003FF4D12368F8
:1026380013F0020F50D0714B9B6813F00C0F0AD0A7
:102648006E4B9B6803F00C03082B16D16B4B5B6831
:1026580013F4800F11D1694B1B6813F0020F03D0DC
:10266800E368012B40F03E81644A136823F0F803C5
:10267800216943EAC10313602EE0E368D3B1012264
:102688005F4B1A6000F024FC054605E000F020FCD2
:10269800401B022800F22881584B1B6813F0020FD8
:1026A800F4D0564A136823F0F803216943EAC103BA
:1026B800136011E00022524B1A6000F009FC054635
:1026C80005E000F005FC401B022800F20F814B4B8F
:1026D8001B6813F0020FF4D1236813F0080F26D0FB
:1026E800636993B10122474B1A6000F0F1FB05467C
:1026F80005E000F0EDFB401B022800F2F9803F4B9B
:102708005B6F13F0020FF4D011E000223D4B1A600A
:1027180000F0DEFB054605E000F0DAFB401B02286E
:1027280000F2E880354B5B6F13F0020FF4D1236899
:1027380013F0040F7CD0314B1B6C13F0805F0DD16C
:10274800002301932D4B1A6C42F080521A641B6CC3
:1027580003F080530193019B012500E000252A4BDB
:102768001B6813F4807F13D1274A136843F48073DE
:10277800136000F0ADFB064605E000F0A9FB801BE6
:10278800022800F2B980204B1B6813F4807FF4D034
:10279800A368012B05D1194A136F43F0010313678E
:1027A80014E0052B09D1154B1A6F42F004021A6781
:1027B8001A6F42F001021A6708E0104B1A6F22F0F4
:1027C80001021A671A6F22F004021A67A3688BB114
:1027D80000F07EFB064607E000F07AFB801B41F222
:1027E8008833984200F28A80044B1B6F13F0020F63
:1027F800F2D017E000F06CFB06460EE0003802400D
:1028080000004742800E47420070004000F060FB25
:10281800801B41F28833984272D8404B1B6F13F0EB
:10282800020FF3D125B13D4A136C23F08053136492
:10283800A369002B66D0394A926802F00C02082A74
:1028480062D0022B33D10022354B1A6000F040FBD6
:10285800054604E000F03CFB401B022856D82F4BED
:102868001B6813F0007FF5D1E269236A1343626A9B
:1028780043EA8213A26A5208013A43EA0243E26A2F
:1028880043EA0263254A53600122254B1A6000F08F
:102898001FFB044604E000F01BFB001B022837D88E
:1028A8001E4B1B6813F0007FF5D0002033E0002298
:1028B8001B4B1A6000F00CFB044604E000F008FB18
:1028C800001B022826D8154B1B6813F0007FF5D192
:1028D800002020E00120704701201CE003201AE0BE
:1028E800032018E0012016E0032014E0032012E082
:1028F800032010E003200EE003200CE003200AE090
:10290800032008E0002006E0012004E0032002E0A4
:10291800032000E0032002B070BD00BF0038024071
:102928006000474238B52F4B9B6803F00C03042B1B
:1029380055D0082B01D02C4838BD2A4B5A6802F0D4
:102948003F025B6813F4800F20D0264B5B68C3F30B
:102958008813DC000025690141EAD4616001041B89
:1029680061EB0505A90141EA9461A001001B61EB37
:102978000501C01841F100014B0243EAD05344025B
:10298800204619460023FDF755FC1FE0154B5B68F0
:10299800C3F38813DC000025690141EAD4616001B2
:1029A800041B61EB0505A90141EA9461A001001B24
:1029B80061EB0501C01841F100018B0243EA905315
:1029C8008402204619460023FDF734FC054B5B685A
:1029D800C3F3014301335B00B0FBF3F038BD034898
:1029E80038BD00BF003802400024F40000127A000D
:1029F800002800F0978070B50D460446504B1B68C0
:102A080003F00F038B4208D2CBB24D4A1370136800
:102A180003F00F038B4240F08780236813F0020F06
:102A280017D013F0040F04D0464A936843F4E053D8
:102A38009360236813F0080F04D0424A936843F464
:102A4800604393603F498B6823F0F002A368134307
:102A58008B60236813F0010F2FD06268012A05D11B
:102A6800384B1B6813F4003F0ED15FE0931E012B17
:102A780005D8344B1B6813F0007F05D158E0314B63
:102A88001B6813F0020F55D02E498B6823F00303FF
:102A980013438B6000F01CFA064606E000F018FAB3
:102AA800801B41F28833984246D8264B9B6803F036
:102AB8000C036268B3EB820FF0D1214B1B6803F063
:102AC8000F03AB4207D9EAB21D4B1A701B6803F01B
:102AD8000F03AB4232D1236813F0040F06D0194913
:102AE8008B6823F4E052E36813438B60236813F088
:102AF800080F07D0134A936823F46043216943EA17
:102B0800C1039360FFF70EFF0E4B9B68C3F30313DB
:102B18000D4AD35CD8400D4B1860002000F08CF9AA
:102B2800002070BD01207047012070BD012070BDDC
:102B3800012070BD012070BD032070BD012070BD53
:102B4800003C024000380240E0380008080000203D
:102B5800014B1868704700BF0800002008B5FFF750
:102B6800F7FF044B9B68C3F38223034AD35CD84026
:102B780008BD00BF00380240F038000808B5FFF76C
:102B8800E7FF044B9B68C3F34233034AD35CD84046
:102B980008BD00BF00380240F03800082DE9F041B8
:102BA80082B00023C4E09C4601229A400C6814407D
:102BB800944240F0BC804D68022D01D0122D14D1F2
:102BC8004FEAD30E0EF1080E50F82E7003F00708E6
:102BD8004FEA88080F2505FA08F527EA05060D6962
:102BE80005FA08F5354340F82E5006684FEA430EBB
:102BF800032505FA0EF5ED4305EA06074E6806F0CB
:102C0800030606FA0EF63E4306604E68771E012F4D
:102C180003D9112E01D0122E12D1866805EA0607B3
:102C2800CE6806FA0EF63E438660476827EA020732
:102C38004E68C6F3001202FA0CF646EA0702426032
:102C4800C2682A408D6805FA0EF51543C5604A68C2
:102C580012F0805F6BD000220192384A556C45F41F
:102C680080455564526C02F480420192019A9F0893
:102C7800BD1C334A52F8256003F0030E4FEA8E0E4E
:102C88000F2202FA0EF226EA02052E4A904219D0C5
:102C980002F58062904213D002F5806290420DD016
:102CA80002F58062904207D002F58062904201D11D
:102CB800042208E0072206E0032204E0022202E0E0
:102CC800012200E0002202FA0EF22A4302371C4DCC
:102CD80045F827201C4A1568E24302EA05064F68B2
:102CE80017F4803F01D044EA0506174D2E606D6841
:102CF80002EA05064F6817F4003F01D044EA0506CA
:102D0800114D6E60AD6802EA05064F6817F4801F22
:102D180001D044EA05060C4DAE60ED682A404E68C5
:102D280016F4001F01D044EA0502074CE2600133A3
:102D38000F2B7FF638AF02B0BDE8F08100380240B3
:102D48000038014000000240003C01400AB18161A6
:102D5800704709048161704700F00700064AD3688C
:102D680023F4E0631B041B0C43EA002040F0BF601F
:102D780040F40030D060704700ED00E030B4164BEE
:102D8800DC68C4F30224C4F10705042D28BF042518
:102D9800231D062B01D9033C00E00024012303FA7C
:102DA80005F5013D2940A140A340013B1A400A43D3
:102DB800002806DA00F00F001201D2B2074B1A54AD
:102DC80007E01201D2B200F1604000F5614080F8DE
:102DD800002330BC704700BF00ED00E014ED00E0B8
:102DE8000138B0F1807F0AD2064B5860F021064ABC
:102DF80082F823100020986007221A60704701208B
:102E0800704700BF10E000E000ED00E0042805D1A5
:102E1800054A136843F0040313607047024A1368B5
:102E280023F004031360704710E000E0704700BF10
:102E380008B5FFF7FBFF08BD10B504460E4B187820
:102E48004FF47A73B3FBF0F30C4A1068B0FBF3F05D
:102E5800FFF7C6FF58B90F2C0BD84FF0FF302146AB
:102E68000022FFF78BFF064B1C60002010BD0120DD
:102E780010BD012010BD00BF040000200800002084
:102E88000000002008B50B4B1A6842F400721A6063
:102E98001A6842F480621A601A6842F480721A60F2
:102EA8000320FFF759FF0020FFF7C6FFFEF710F9D0
:102EB800002008BD003C0240034A13680349097812
:102EC8000B441360704700BF8401002004000020F9
:102ED800014B1868704700BF8401002038B50446CC
:102EE800FFF7F6FF0546B4F1FF3F02D0044B1B780D
:102EF8001C44FFF7EDFF401B8442FAD838BD00BFE1
:102F0800040000200F49D1F8883043F47003C1F859
:102F180088300D4B1A6842F001021A600020986050
:102F28001A6822F0847222F480321A60074A5A60C2
:102F38001A6822F480221A60D8604FF000638B6010
:102F4800704700BF00ED00E0003802401030002458
:102F5800DFF834D0002103E00C4B5B5843500431B8
:102F68000B480C4B42189A42F6D30B4A02E0002356
:102F780042F8043B094B9A42F9D3FFF7C3FF00F02C
:102F880011F8FDF79DFC7047000002204039000849
:102F98000000002070000020700000208C0100203C
:102FA800FEE7000070B50E4B0E4CE41AA410002585
:102FB8001E46A54204D056F8253098470135F8E753
:102FC80000F03AFC084C094BE41AA41000251E46F0
:102FD800A54204D056F8253098470135F8E770BD6A
:102FE80038390008383900083C39000838390008F1
:102FF8000EB400B59CB04FF40271ADF814106FF028
:103008000041049107914FF6FF711DABADF8161002
:10301800084953F8042B029006900868019302A906
:1030280000F064F8029B00221A701CB05DF804EBF3
:1030380003B070476C0000202DE9F0478E68B3425A
:1030480082460C469046994640D38A8912F4906F7E
:103058003AD0256809696F1A6569022305EB4505A9
:1030680095FBF3F57B1C4B449D4238BF1D46530529
:103078000FD5294600F03CFB064698B121693A462F
:1030880000F0CBFAA38923F4906343F08003A38173
:1030980013E02A4600F082FB064670B950462169C3
:1030A80000F0E2FA0C23CAF80030A38943F0400389
:1030B800A3814FF0FF30BDE8F087266165613E448B
:1030C800ED1B2660A5604E46B14500D24E463246FD
:1030D8002068414600F0ACFAA3689B1BA3602368F4
:1030E8001E4426600020BDE8F08700002DE9F0436B
:1030F8009DB0064603938B891C060D4690460CD559
:103108000B6953B9402100F0F3FA2860286110B91F
:103118000C233360CCE040236B6100230993202308
:103128008DF8293030238DF82A3043461C4613F891
:10313800012B1AB9B4EB08090FD002E0252AF5D102
:10314800F8E73046294642464B46FFF775FF0130FF
:1031580000F0A980099B4B4409932378002B00F0C9
:10316800A28000234FF0FF32049307930592069341
:103178008DF853301A9304F101084446DFF848915A
:1031880021784846052200F039FA08F10108049B25
:1031980030B1C9EB00000122824013430493ECE7ED
:1031A800D80644BF20228DF85320190744BF2B228C
:1031B8008DF8532022782A2A02D0079923460EE058
:1031C800039A111D12680391002ABBBF524243F0B3
:1031D800020307920792B8BF049301340AE01C4621
:1031E80001332278303A092A03D80A2000FB01214A
:1031F800F5E7079123782E2B1AD163782A2B0AD169
:10320800039B1A1D1B680392002BB8BF4FF0FF33B6
:10321800023405930CE0611C00220C46013123782E
:10322800303B092B03D80A2000FB0232F5E7059250
:10323800DFF8988021784046032200F0DFF938B1A2
:10324800049AC8EB000040238340134304930134DD
:1032580021781A488DF82810062204F1010800F098
:10326800CDF988B1164B33B9039B073323F0070315
:103278000833039313E003AB0093304604A92A46AE
:10328800104BAFF3008007E003AB0093304604A96E
:103298002A460C4B00F092F8421C074603D0099BC3
:1032A8003B44099341E7AB895B0601D4099801E0E7
:1032B8004FF0FF301DB0BDE8F08300BF04390008AF
:1032C8000000000041300008FA3800080039000802
:1032D8002DE9F84391461F468A680B69DDF820807E
:1032E8009342B8BF1346C9F8003091F84320064608
:1032F8000C4612B10133C9F800302368990642BF61
:10330800D9F800300233C9F80030256815F00605F1
:103318001CD094F843302268003318BF012392066A
:103328001FD5E1185A1C302081F84300224494F834
:10333800451082F84310023313E03046394604F151
:1033480019020123C047013007D00135E368D9F8D5
:1033580000209B1A9D42F0DBDBE74FF0FF30BDE811
:10336800F8833046394604F14302C0470130F4D0AF
:103378002268D9F80050E36802F00602042A08BF60
:103388005D1B2269A3680CBF25EAE57500259342F9
:10339800C4BF9B1AED184FF00009A9450ADA304658
:1033A800394604F11A020123C0470130D5D009F18A
:1033B8000109F2E70020BDE8F88300002DE9FF418C
:1033C8000C461746227E6E2A984606460A9B01F14D
:1033D800430100F0AF8012D8632A23D00AD8002A0C
:1033E80000F0BC80582A40F0CB8084F84520DFF8F4
:1033F80004E257E0642A1ED0692A1CD0C0E0732A70
:1034080000F0B08009D86F2A2ED0702A40F0B8801A
:10341800226842F0200222603FE0752A24D0782AF0
:103428003BD0ADE01A68111D1960136884F842306A
:1034380004F14205A8E020681A6810F0800F02D055
:10344800101D186008E010F0400F02F10400186029
:1034580002D0B2F9003000E01368002B3EDA2D22CA
:103468005B4284F8432039E020681A6810F0800F26
:1034780002D0101D186007E010F0400F02F10400A0
:10348800186001D0138800E01368227EDFF864E139
:103498006F2A0CBF08220A221CE07822DFF858E1C4
:1034A80084F845202268186812F0800F00F104059E
:1034B8001D6003D1550601D5038800E00368D007D5
:1034C80044BF42F0200222601BB9226822F0200289
:1034D80022601022002084F8430002E0DFF814E1A3
:1034E8000A226568A560002DA2BF206820F00400AC
:1034F800206003B965B10D46B3FBF2F002FB10334F
:103508001EF8033005F8013D03460028F4D100E019
:103518000D46082A0BD12368DA0708D523696268A3
:103528009A42DEBF302305F8013C05F1FF35491BFF
:1035380021612EE025681A68606915F0800F03D0B4
:10354800151D1D60136808E015F0400F02F1040511
:103558001D60136801D0188000E018600023236103
:103568000D4616E01A68111D19601568626828462C
:10357800002100F043F808B1401B6060636804E074
:1035880004F1420584F8422001232361002384F8D2
:103598004330CDF800803046214603AA3B46FFF76A
:1035A80097FE013002D14FF0FF301FE03046394618
:1035B8002A462369C0470130F5D023689B0705D404
:1035C800E068039B9842B8BF18460FE00025E368FF
:1035D800039A9B1A9D42F3DA3046394604F11902E0
:1035E8000123C0470130DED00135F0E704B0BDE863
:1035F800F08100BF0B3900081C39000810B5C9B2AA
:1036080002449042034606D01C788C4200F1010027
:10361800F7D1184610BD002010BD10B5431E0A444E
:10362800914204D011F8014B03F8014FF8E710BD9F
:10363800814210B501EB020301D3421E0BE0984210
:10364800FBD28118D21AD34204D013F8014D01F8E5
:10365800014DF8E710BD994204D011F8014B02F86A
:10366800014FF8E710BD000030B500293DD051F8F2
:10367800042C0B1F1D49002AB8BF9B180A680C466A
:1036880012B95A600B6030BD93420DD219685818B0
:10369800904201BF5A5852181A6042685A60236013
:1036A80030BD994203D80A4651680029F9D11468F7
:1036B80015199D420AD11B682344D018884213600B
:1036C80013D10868034413604B680DE002D90C233A
:1036D800036030BD1C681819884204BF086849682F
:1036E800596004BF00191860536030BD9000002075
:1036F80070B5CC1C24F0030408340C2C38BF0C24FF
:10370800002C064603DA0C233360002070BD8C427F
:10371800F9D3204A136810461946A1B10A68121B4A
:103728000ED40B2A03D90A608B188C501FE08B42E9
:103738000DBF5A684A685A60026018BF0B4616E007
:103748000B464968E9E7144D2B681BB9304600F071
:103758004BF828603046214600F046F8421C0346E4
:10376800D1D0C51C25F0030585420AD11C6003F1A0
:103778000B001A1D20F00700821A0AD051429950F6
:1037880070BD3046E91A00F02FF80130BBD02B4647
:10379800ECE770BD900000208C000020F8B50746CB
:1037A80015460E4621B91146BDE8F840FFF7A0BFFF
:1037B8001AB9FFF759FF2846F8BD00F025F8A842C6
:1037C8000ED238462946FFF793FF044650B13146DA
:1037D8002A46FFF722FF38463146FFF745FF01E04A
:1037E8003046F8BD2046F8BD38B5064C00230546DE
:1037F8000846236000F012F8431C02D1236803B185
:103808002B6038BD8801002051F8040C0028BEBF89
:10381800091851F8043CC01804387047044A05498F
:103828001368002B08BF0B461844106018467047F1
:103838009400002090010020F8B500BFF8BC08BC37
:103848009E467047F8B500BFF8BC08BC9E46704756
:10385800416C657274652C206E6F75732061766F8C
:103868006E7320756E20636F646520726F7567656F
:10387800000000000D0A00005372632F6D61696E2D
:103888002E630000417474656E7A696F6E207A65E4
:10389800737420706172746969696920202E2E2EF4
:1038A8002E0000004D505520656E20504C530000EE
:1038B800256900005372632F6932632E630000008C
:1038C8005372632F74696D2E630000005372632F67
:1038D80075736172742E6300000000000000000020
:1038E800010203040607080900000000010203049E
:1038F8004300232D302B2000686C4C00656667451B
:10390800464700303132333435363738394142434F
:103918004445460030313233343536373839616200
:08392800636465660000000005
:08393000A0C9FF7F01000000A7
:04393800050200087C
:04393C00DD010008A1
:1039400010000000010000000024F400000000004E
:103950000000000000000000000000000000000067
:10396000000000000000000000000000F83800081F
:103970000000000000000000000000000000000047
:103980000000000000000000000000000000000037
:103990000000000000000000000000000000000027
:1039A0000000000000000000000000000C000020EB
:0400000508002F5967
:00000001FF
